:100000000C942A000C943F000C943F000C943F0089
:100010000C943F000C943F000C943F000C943F0064
:100020000C943F000C943F000C943F000C943F0054
:100030000C943F000C943F000C943F000C943F0044
:100040000C943F000C943F000C943F000C943F0034
:100050000C943F0011241FBECFE5D8E0DEBFCDBF1A
:1000600010E0A0E6B0E0E6EBF1E002C005900D92F2
:10007000A436B107D9F70E94A3000C94D9000C94C0
:100080000000DE9A00000000DE98089517BADF9A9B
:10009000DD9802C00E944100C799FCCF8FEF87BB5B
:1000A0000895DF93CF930F92CDB7DEB789830E9477
:1000B0004600898188BB8BB38F758BBB0E94410042
:1000C00018BA0F90CF91DF910895DF93CF930F92DD
:1000D000CDB7DEB789830E944600898188BBDF984F
:1000E000DD9A0E94410018BA0F90CF91DF910895D8
:1000F0008158E62FF0E0E15AFF4F9081890F0E946E
:10010000510008958AB3806E8ABB8BE49DE101970C
:10011000F1F700C0000081E00E94510087EE93E0FB
:100120000197F1F700C0000088E30E94510091E2BE
:100130009A95F1F700008EE00E94510081E28A95C5
:10014000F1F7000008950F931F93CF93DF930E9460
:10015000820016C0802F6C2F0E94780081E40E94DC
:10016000650083ED90E30197F1F700C000000F5F99
:100170001F4F0131110571F72196C330D10514F0DD
:10018000C1E0D0E001E010E0E5CFEF92FF92CF9325
:10019000DF93E82EE7017E01F92EE70102C00E94FD
:1001A000650089918823D9F7DF91CF91FF90EF9077
:0601B0000895F894FFCF52
:0401B6000040000005
:00000001FF
